:020000040800F2
:100000000005002001010008AB130008B31200082E
:10001000A913000849010008A91400080000000005
:10002000000000000000000000000000CF130008E6
:100030007302000800000000CD130008D11300086F
:100040001B0100081B0100081B0100081B01000820
:100050001B0100081B0100081B0100081B01000810
:100060001B0100081B0100081B0100081B01000800
:100070001B0100081B0100081B0100081B010008F0
:100080001B0100081B0100081B0100089114000857
:100090009D1400081B0100081B0100081B0100083B
:1000A0001B0100081B0100081B0100081B010008C0
:1000B0001B0100081B0100081B0100081B010008B0
:1000C0001B0100081B0100081B0100081B010008A0
:1000D0001B0100081B0100081B0100081B01000890
:1000E0001B0100081B0100081B010008DFF80CD0F1
:1000F00000F018F800480047C91400080005002067
:100100000648804706480047FEE7FEE7FEE7FEE7B1
:10011000FEE7FEE7FEE7FEE7FEE7FEE7491400081C
:10012000ED000008064C074D06E0E06840F00103D2
:1001300094E8070098471034AC42F6D3FFF7DAFF93
:10014000A8150008C8150008FEE7000010B5002932
:1001500058D0826B4FF4D873046803EB0113E45852
:1001600014F0040494600468E4584DD0E40854602A
:100170000468E35803F00203D3604FF4DA730468B1
:1001800003EB0113E45804F00F04146111620468D6
:10019000E358C3F30723D3614FF4DC73046803EB24
:1001A0000113E45814750468E458240A547504686B
:1001B000E458240C94750468E3581B0ED3754FF46F
:1001C000DE73046803EB0113E45814760468E45802
:1001D000240A54760468E458240C94760468E3589E
:1001E0001B0ED3760368202289B11A610268536915
:1001F00023F05003536190F83C20222A0DD0322A7C
:100200000BD00FE0426BA5E7640D1460B0E7DA6035
:100210000268536923F00A03ECE70268536923F488
:100220000F43536112220123002990F83C1006D09D
:10023000522915D0622916D0722906D115E042291B
:100240000ED0622908D0722908D080F83C3000BF57
:1002500000F0D0FA002010BD322107E0522105E065
:1002600080F83C20F4E7222100E0422180F83C1095
:10027000EEE77047F0B50C7D012303FA04F2046841
:10028000D4F800524E6A25F47C5503EB06231D4337
:10029000C4F800520368D3F81C429443C3F81C42CC
:1002A0004FF41073CD691C1DBDB90568D5F80C62FB
:1002B0009643C5F80C628E894D684F6966F31F45F9
:1002C000066803EBC707F5510E890D684F6966F3A1
:1002D0001F45066804EBC707F551CD69012D17D1FD
:1002E0000568D5F80C621643C5F80C620E884D6897
:1002F0004F6966F31F45066803EBC703F5500D8988
:10030000CB684E6965F31F43056804EBC6042B51A7
:100310008B69002B0368D3F8044211D054EA02041D
:10032000C3F804420B69002B0368D3F8144209D0C8
:1003300054EA0204C3F81442096A012904D009E00E
:100340009443EDE79443F5E70168D1F81C32134379
:10035000C1F81C320068D0F8001221F00101C0F889
:1003600000120020F0BD70472DE9F04104460068FE
:100370000026C168C1F300134169C1F3C002102116
:1003800013B10AB14E01C160206802694369C2F32A
:100390000012C3F380131AB113B146F480660161F1
:1003A000216848694FF00105C043C0074ED18A68F3
:1003B0007648904323D000208B68754A9A4320D01A
:1003C00000228F68734BBB431DD00023104318439A
:1003D0003CD088688A68C0F340008B68C2F3402232
:1003E00003F001031043184329D04A69204622F044
:1003F00001024A6194F83C10122906D00AE001205B
:10040000DAE70122DDE70123E0E701684A6922F427
:100410000F424A6190F83C10422908D0522908D076
:10042000722908D080F83C5000F0EEFA09E0222151
:1004300002E0322100E0622180F83C10F4E746F44B
:10044000006620688168544A114381602168C86849
:10045000496910F0030FC1F3400104D019B1002124
:100460002046FFF773FE21680869496910F0030F01
:10047000C1F3001104D019B101212046FFF766FE37
:10048000206C3043206420688169426911F0010FBB
:100490004369C2F30022C3F3C03305D022B11BB1BC
:1004A000216C41F0010121648169C1F3400341697C
:1004B000C1F340224169C1F3C0312BB122B119B15E
:1004C000216C41F0020121648169C1F3800341691B
:1004D0004269C1F38021C2F3C0322BB121B11AB1FC
:1004E000216C41F004012164816911F0700F08D082
:1004F00000224169C1F3C0234169C1F3C03112B187
:1005000021E00122F5E7F3B1E9B1816901F0700161
:1005100040292FD006DC102909D020290BD0302902
:100520000DD123E0502929D0602908D12AE0216C7F
:1005300041F0080102E0216C41F010012164816961
:1005400021F070018161206C00280DD02168042009
:10055000486084F83C502068416948F65B729143DA
:1005600041612046FFF7FFFEBDE8F081216C41F0BC
:100570002001E3E7216C41F04001DFE7216C41F00D
:100580008001DBE7216C41F48071D7E701000004B2
:100590000001000800000110090501002DE9F041EB
:1005A00004004FF0000504D094F83C00002618B178
:1005B00007E00120BDE8F08184F83D60204600F0AE
:1005C00083F8022084F83C002068016821F00201D1
:1005D00001602068016841F00101016000F016FB34
:1005E00007464FF0030804E000F010FBC01B0A2888
:1005F00053D820684068C007F6D021684868C00713
:1006000058D0A069012801D145F08005E069012892
:100610002FD025F04000226A012A2DD020F02000A2
:10062000626A012A2BD020F01000A26A012A29D088
:1006300020F00800E26A012A27D020F004000A68AE
:1006400022F0FC0202430A60D4E902010843D4E923
:100650000412114308436168491E08432168C861B8
:100660002068016821F00101016000F0CFFA054621
:1006700018E045F04000CEE740F02000D0E740F021
:100680001000D2E740F00800D4E740F00400D6E7BD
:1006900000F0BCFA401B0A2804D904F83C8F032060
:1006A000667087E720684068C007F1D1206840681D
:1006B000C00703D0042084F83C007AE726640120B8
:1006C00084F83C00002075E710B50068194986B031
:1006D00088422DD11848C16941F00071C161C069DB
:1006E000164C00F0007004904FF400600090002061
:1006F000019002906946204600F0A0F9A0140090F5
:1007000002200190032003906946204600F096F9EC
:1007100000221146132000F00DFB132000F0FEFA1A
:1007200000221146142000F005FB142000F0F6FA18
:1007300006B010BD006400400010024000080140F7
:1007400030B511B1012925D010E090F83C20222AC3
:1007500028D090F83C20422A24D000BF90F83C20BA
:10076000622A1FD090F83C20722A1BD090F83D20BE
:10077000012A17D0012280F83D20622290F83C40E7
:10078000722389B1122C19D0222C18D0422C19D0E6
:10079000322214E090F83C20322A03D090F83C201A
:1007A000522ADBD1022030BD122C05D0322C06D0CB
:1007B000522C07D0222202E0422200E0522280F88E
:1007C0003C2001E080F83C300022026403685C6950
:1007D00048F601752C435C6180F83D2000680029D3
:1007E000416904D041F050014161002030BD41F029
:1007F0000A01F9E770B504460021FFF7A1FF4FF4A5
:1008000000510C4800F0F8F90B4A0021A2F1A003B6
:10081000D06903EBC003106904E055182D7D5D54C9
:10082000491CC9B28842F8D82068416941F00A01E0
:10083000416170BD00100140B00000202DE9F05F63
:100840000E46016804468868400105D488680001A6
:1008500002D48868C0006FD594F83D0001280CD000
:10086000012784F83D7094F83C00222808D03228F3
:1008700008D062280ED0122005E00220BDE8F09FCB
:10088000422000E0522084F83C008868400103D5F3
:10089000002507E07220F6E78868000101D50125F0
:1008A00000E002254FF4C07000EB05100A5802F07A
:1008B00001020A50216B8A68EAB3D4F800C05CF8E0
:1008C00000301343CA68496842EAC1010B434CF83F
:1008D0000030216B0A7C02F00F020A614FF4C271F2
:1008E000226801EB0511535823F00F03535022687F
:1008F0005358D4F830C0DCF810C043EA0C0353500E
:10090000216B4FF4C47303EB05130A7DD1F8151066
:1009100042EA01222168CA50216B4FF4C67303EBEF
:1009200005130A7ED1F8191042EA01222168CA5043
:1009300021680A5801E00DE05AE042F001020A5035
:1009400000F064F981464FF00008DFF8B0A0DFF84E
:10095000B0B026E022681358D1F80CC0098843EAE9
:100960000C0343EA41511150B3E7701C19D02EB16A
:1009700000F04CF9A0EB0900B04212D9032084F832
:100980003C004DB1012D09D04FF400002168886072
:1009900084F83D80032071E78020F7E74FF40040A2
:1009A000F4E7ADB12068012D816816D01548884361
:1009B0000028DAD194F83C00422811D0522811D0F6
:1009C000722813D084F83C7084F83D80002055E7ED
:1009D000206881682AEA0100EAE72BEA0100E7E7DC
:1009E000222000E0322084F83C00EDE76220FAE7A4
:1009F000042084F83C00012040E7000001000004CE
:100A000000010008000001104FF40051014800F0FF
:100A1000F3B800000010014070B5044600F0F6F88D
:100A20000546601C02D004480078044400F0EEF84B
:100A3000401BA042FAD370BD000000202DE9F84F02
:100A4000DFF890A100220AF1040B144601274FF0B1
:100A50000F090BF1040E00BF0B6807FA04F52B40D9
:100A6000AB4274D1DFF870C14E68A6EB0C08664546
:100A70002BD00DDC032E34D005DC36B3012E19D07B
:100A8000022E2FD11BE0112E16D0122E2AD119E0E2
:100A9000B8F5881F19D006DCB8F5803F15D0B8F539
:100AA000801F1FD111E0B8F5001F0ED0B8F5041F4C
:100AB00018D10AE0CA6815E0CA68121D12E0CA68B7
:100AC00008320FE0CA680C320CE08A682AB1012AA9
:100AD0004FF0080203D0456104E0042202E0056102
:100AE00000E00022FF2B01D8064601E000F10406D9
:100AF0004FEA840501D9A5F12005D6F800C009FA0E
:100B000005F82CEA080C02FA05F54CEA050CC6F8C3
:100B100000C04D68ED0057D5304DAE6946F0010676
:100B2000AE61AD6924F0030605F0010500952C4D7A
:100B300006EB050CDCF80850A6074FEA167809FA10
:100B400008F6B543274EB04202D1002610E03BE044
:100B5000254EB04201D101260AE0244EB04201D117
:100B6000022605E0224EB04201D1032600E0042611
:100B700006FA08F62E43CCF808604D68DAF80060F3
:100B8000ED03554601D51E4300E09E432E604D689F
:100B9000DBF80060AD035D4601D51E4300E09E43D7
:100BA0002E604D68DEF80060ED02754601D51E43EB
:100BB00000E09E432E604D68AD020E4D2E6801D5BB
:100BC0001E4300E09E432E60641C102CFFF444AFD3
:100BD000BDE8F88F00040140000011100010024031
:100BE0000000014000080140000C014000100140DD
:100BF000001401400C040140C2684A40C2607047C2
:100C00000AB1016170470904FBE7000001488068F0
:100C100070470000000000200248816802781144FB
:100C20008160704700000020074810B5016841F05E
:100C300010010160032000F09DF8002000F006F88C
:100C400000F024F8002010BD0020024070B50D4DCA
:100C500004464FF47A712878B1FBF0F00A4909682C
:100C6000B1FBF0F000F00DFB48B9102C07D20022C8
:100C70002146501E00F05EF800206C6070BD01201F
:100C800070BD0000000000200C000020214808B5C5
:100C9000816941F001018161816901F001010091E7
:100CA000C16941F08051C161C06900F0805000907D
:100CB000032000F05FF8002211466FF00B0000F0F7
:100CC00039F8002211466FF00A0000F033F80022D4
:100CD00011466FF0090000F02DF800221146501F58
:100CE00000F028F800221146101F00F023F800221F
:100CF0001146901E00F01EF800221146501E00F012
:100D000019F80548416821F0E06141F00071416047
:100D100008BD0000001002400000014000F01F026A
:100D2000012191404009800000F1E020C0F800114D
:100D300070470000F0B40E4B1B680C46C3F302234F
:100D4000C3F10705042D00D90425191D072901D277
:100D5000002300E0DB1E012606FA05F1491E2140B2
:100D600099409E40761E16403143F0BC00F01EBBF9
:100D70000CED00E0064900F0070208684FF6FF039B
:100D8000184040EA0220034A104308607047000000
:100D90000CED00E00000FA052DE9F047DFF83C819A
:100DA00005460E46D8F8000000F00700B0420CD20D
:100DB000D8F8001021F007013143C8F80010D8F826
:100DC000000000F00700B04263D12878444C80074F
:100DD00005D56068A96820F0F000084360602878B5
:100DE000C00745D06868012816D02168022816D0AF
:100DF000890700294DDA616821F003010143616030
:100E0000FFF704FF6968074641F2883001290FD0D7
:100E10000229814619D027E021688903E9E7890181
:100E2000E7E700BFFFF7F2FEC11B494501D918E013
:100E300081466068C0F381000128F3D118E000BF4B
:100E4000FFF7E4FEC11B49450BD86068C0F3810081
:100E50000228F5D10CE000BFFFF7D8FEC11B4945C1
:100E600002D90320BDE8F087606810F00C0FF3D1C1
:100E7000D8F80010404601F00701B1420BD90168D3
:100E800021F0070131430160006800F00700B04223
:100E900001D00120E6E72878400705D56068E968B9
:100EA00020F4E060084360602878000706D5606899
:100EB000296920F4605040EAC100606000F01CF82D
:100EC0006168084AC1F30311515CC84006490860D3
:100ED0000020FFF7BBFE0020C4E700000020024016
:100EE00000100240981500080C000020014800681E
:100EF000704700000C00002012A185B00FC98DE8DA
:100F00000F0014A0144A006804905168134801F0BF
:100F10000C03042B10D0082B0ED1C1F38343C9035B
:100F20001DF803000AD5516804AAC1F34041515C81
:100F30000A4A5043B0FBF1F005B0704708494843F6
:100F4000FAE7000002030405060708090A0B0C0D66
:100F50000E0F1010010200000010024000127A0073
:100F600000093D002DE9F84F04460078B94DC0074F
:100F700048D06868C0F38100012807D06868C0F3D2
:100F80008100022809D16868C00306D5286880035B
:100F900038D5606800286FD034E06068B0F5803FD5
:100FA0000BD010B1B0F5A02F11D0286820F48030FC
:100FB0002860286820F4802002E0286840F480300F
:100FC0002860606888B1FFF721FE064609E02868BE
:100FD00040F480202860F0E7FFF718FE801B6428AB
:100FE00075D828688003F7D50CE0FFF70FFE06469A
:100FF00005E000BFFFF70AFE801B6428F0D82868D0
:101000008003F7D42078944E80074FF001094FF009
:1010100000083BD5686810F00C0F07D06868C0F373
:101020008100022809D16868C00306D428688007B7
:1010300014D5206901281FD110E02069B0B1C6F88D
:101040000090FFF7E3FD074605E000BFFFF7DEFD78
:10105000C01B0228C4D828688007F7D528686169B2
:1010600020F0F80040EAC10028600FE0C6F80080D8
:10107000FFF7CCFD074606E0E9E000BFFFF7C6FD3D
:10108000C01B022823D828688007F7D420780007DF
:101090002CD57248A169D9B1C0F80090FFF7B6FD10
:1010A000074604E0FFF7B2FDC01B02280FD8686AAC
:1010B0008007F7D56A484FF4FA510068B0FBF1F0A9
:1010C000009000BF0098411E0091FAD20EE080E02F
:1010D000C0F80080FFF79AFD074604E0FFF796FD91
:1010E000C01B022875D8686A8007F7D420784007AB
:1010F00060D5E8690027C00008D4E86940F0805056
:10110000E861E869012700F08050009055480168C7
:10111000C90513D40168834641F480710160FFF76B
:1011200075FD824606E000BFFFF770FDA0EB0A00E8
:1011300064284ED8DBF80000C005F5D5E06801282A
:101140000AD008B1052813D0286A20F001002862CF
:10115000286A20F0040002E0286A40F001002862BA
:10116000E06841F2883B98B1FFF750FD82460BE002
:10117000286A40F004002862EEE700BFFFF746FD52
:10118000A0EB0A0159455AD8286A8007F6D50CE029
:10119000FFF73CFD824605E0FFF738FDA0EB0A01B2
:1011A00059454CD8286A8007F6D41FB1E86920F069
:1011B0008050E861E06988B36968C1F38101022960
:1011C00045D00228C6F8608004D0FFF71FFD044612
:1011D00038E034E0FFF71AFD074604E0FFF716FD9C
:1011E000C01B02282BD828688001F7D4206AB0F5EC
:1011F000803F05D16868A16820F40030084368602A
:10120000D4E908010843696821F47411084368604F
:10121000C6F86090FFF7FAFC044606E015E000BF50
:10122000FFF7F4FC001B022809D828688001F7D5D5
:101230000BE000BFFFF7EAFC001B022802D90320E5
:10124000BDE8F88F28688001F4D40020F8E7012079
:10125000F6E70000001002400000424280044242D3
:101260000C000020007000404FF0E02104280869C5
:1012700003D020F004000861704740F00400FAE752
:10128000704710B5401EB0F1807F01D3012010BD22
:101290004FF0E02460610F21601700F087F8002014
:1012A000A06107202061002010BD10B5FFF7E8FF06
:1012B00010BDFEE70E4810B50C49016009214160E0
:1012C00000214FF440228160C0E903124FF48012E4
:1012D000C0E905210122C0E90712C0E90921C16264
:1012E000FFF75CF9002800D0FEE710BD0064004065
:1012F0005000002030B5284885B0816941F01001C8
:101300008161816901F010010491816941F020013E
:101310008161816901F020010491816941F004013A
:101320008161816901F004010491816941F0080142
:1013300081618069194D00F008004FF40054049059
:10134000002221462846FFF75BFC0120CDE9004042
:10135000002002900220039069462846FFF76EFBAA
:101360004FF440400324CDE9000469462846FFF7C6
:1013700065FB48F2FF70CDE9000469460848FFF7B5
:101380005DFB4FF6FF70CDE9000469460548FFF7A5
:1013900055FB05B030BD00000010024000100140B8
:1013A00000080140000C0140FEE770470907090EE4
:1013B000002806DA00F00F0000F1E02080F8141D8C
:1013C000704700F1E02080F80014704770477047C4
:1013D00010B5FFF721FCBDE81040FFF766BF30B540
:1013E0008FB001210804CDE90010002402940225E9
:1013F0000491CDE907504FF4E01009906846FFF7DB
:10140000B1FD00B1FEE70F20CDE90A054FF4806081
:10141000CDE90C4002210AA80E94FFF7BDFC00B1F3
:10142000FEE7FFF763FD4FF47A71B0FBF1F0FFF7D1
:1014300028FF0420FFF718FF00221146501EFFF777
:1014400079FC0FB030BD00000D48016841F001018A
:10145000016041680B4A1140416001680A4A11402D
:101460000160016821F480210160416821F4FE01DE
:1014700041604FF41F0181600449C0030860704758
:10148000001002400000FFF8FFFFF6FE08ED00E04C
:101490000148FEF769BF0000500000200148FEF738
:1014A00063BF000050000020FEE702E008C8121FE2
:1014B00008C1002AFAD170477047002001E001C13D
:1014C000121F002AFBD17047FFF7AEFBFFF787FF23
:1014D000FFF710FFFFF7EEFE2E4C00250126C4E9B2
:1014E00005564FF4C150E56120604FF4C250606072
:1014F0004FF4C350A0604FF4C4502662C4E9030502
:101500002146A1F18400FEF7B5FE4FF4D15066618B
:1015100020604FF4D25060604FF4D350A060C4E913
:1015200006654FF4D4502662C4E903052146A1F1B3
:101530008400FEF79FFE0021A4F18400FFF700F96C
:10154000403CBF20C4E900050320A560C4E9035066
:10155000257566750220A075A4F1440000F16001B4
:10156000C0E90C4140F6B83640F2FF753046FFF74F
:1015700053FA084864218438FFF760F96420FFF7C4
:101580004BFA2068A84201D2401C2060207D401CFC
:101590002075EBE7D40000200000000000000000F0
:1015A0000102030406070809C8150008000000200E
:1015B00010000000AA140008D81500081000002030
:1015C000F0040000BA140008010000001000000040
:0815D0000000000000A24A0423
:04000005080000ED02
:00000001FF
